{
  "contractName": "LandRegistry",
  "abi": [
    {
      "anonymous": false,
      "inputs": [
        {
          "indexed": false,
          "internalType": "uint256",
          "name": "_id",
          "type": "uint256"
        }
      ],
      "name": "sendPropertyId",
      "type": "event"
    },
    {
      "inputs": [],
      "name": "propertyCount",
      "outputs": [
        {
          "internalType": "uint256",
          "name": "",
          "type": "uint256"
        }
      ],
      "stateMutability": "view",
      "type": "function"
    },
    {
      "inputs": [
        {
          "internalType": "uint256",
          "name": "",
          "type": "uint256"
        }
      ],
      "name": "registerdLands",
      "outputs": [
        {
          "internalType": "uint256",
          "name": "",
          "type": "uint256"
        }
      ],
      "stateMutability": "view",
      "type": "function"
    },
    {
      "inputs": [],
      "name": "getRegisteredLandCount",
      "outputs": [
        {
          "internalType": "uint256",
          "name": "",
          "type": "uint256"
        }
      ],
      "stateMutability": "view",
      "type": "function"
    },
    {
      "inputs": [
        {
          "components": [
            {
              "internalType": "string",
              "name": "propertyHouseNumber",
              "type": "string"
            },
            {
              "internalType": "string",
              "name": "propertyStreetName",
              "type": "string"
            },
            {
              "internalType": "string",
              "name": "propertyType",
              "type": "string"
            },
            {
              "internalType": "uint256",
              "name": "propertyArea",
              "type": "uint256"
            },
            {
              "internalType": "uint256",
              "name": "propertyPincode",
              "type": "uint256"
            },
            {
              "internalType": "string",
              "name": "propertyState",
              "type": "string"
            },
            {
              "internalType": "string",
              "name": "propertyVillage",
              "type": "string"
            },
            {
              "internalType": "string",
              "name": "propertyDistrict",
              "type": "string"
            },
            {
              "internalType": "string",
              "name": "propertyTaluka",
              "type": "string"
            },
            {
              "internalType": "string",
              "name": "ownerName",
              "type": "string"
            },
            {
              "internalType": "string",
              "name": "aadharCardNumber",
              "type": "string"
            },
            {
              "internalType": "string",
              "name": "panCardNumber",
              "type": "string"
            },
            {
              "internalType": "string",
              "name": "addressProofA",
              "type": "string"
            },
            {
              "internalType": "string",
              "name": "addressProofB",
              "type": "string"
            },
            {
              "internalType": "bool",
              "name": "transfered",
              "type": "bool"
            },
            {
              "internalType": "uint256",
              "name": "transferedTo",
              "type": "uint256"
            },
            {
              "internalType": "uint256[]",
              "name": "transferedFrom",
              "type": "uint256[]"
            },
            {
              "internalType": "uint256[]",
              "name": "propertySplitLandId",
              "type": "uint256[]"
            },
            {
              "internalType": "uint256",
              "name": "surveyNumber",
              "type": "uint256"
            },
            {
              "internalType": "uint256",
              "name": "subSurveyNumber",
              "type": "uint256"
            },
            {
              "internalType": "string",
              "name": "createdOn",
              "type": "string"
            },
            {
              "components": [
                {
                  "internalType": "string",
                  "name": "name",
                  "type": "string"
                },
                {
                  "internalType": "string",
                  "name": "link",
                  "type": "string"
                },
                {
                  "internalType": "string",
                  "name": "hashString",
                  "type": "string"
                },
                {
                  "internalType": "bool",
                  "name": "verified",
                  "type": "bool"
                }
              ],
              "internalType": "struct LandRegistry.document[]",
              "name": "documents",
              "type": "tuple[]"
            }
          ],
          "internalType": "struct LandRegistry.inputvariables",
          "name": "variable",
          "type": "tuple"
        }
      ],
      "name": "registerNewProperty",
      "outputs": [
        {
          "internalType": "uint256",
          "name": "",
          "type": "uint256"
        }
      ],
      "stateMutability": "nonpayable",
      "type": "function"
    },
    {
      "inputs": [
        {
          "internalType": "uint256[]",
          "name": "_propertyId",
          "type": "uint256[]"
        },
        {
          "internalType": "string",
          "name": "_newOwnerName",
          "type": "string"
        },
        {
          "internalType": "string",
          "name": "_newOwnerAadhaarCardNumber",
          "type": "string"
        },
        {
          "internalType": "string",
          "name": "_newOwnerPanCardNumber",
          "type": "string"
        },
        {
          "internalType": "string",
          "name": "_newOwnerAddressProofA",
          "type": "string"
        },
        {
          "internalType": "string",
          "name": "_newOwnerAddressProofB",
          "type": "string"
        },
        {
          "components": [
            {
              "internalType": "string",
              "name": "name",
              "type": "string"
            },
            {
              "internalType": "string",
              "name": "link",
              "type": "string"
            },
            {
              "internalType": "string",
              "name": "hashString",
              "type": "string"
            },
            {
              "internalType": "bool",
              "name": "verified",
              "type": "bool"
            }
          ],
          "internalType": "struct LandRegistry.document[]",
          "name": "documents",
          "type": "tuple[]"
        }
      ],
      "name": "transferOwnership",
      "outputs": [],
      "stateMutability": "nonpayable",
      "type": "function"
    },
    {
      "inputs": [
        {
          "components": [
            {
              "internalType": "string",
              "name": "propertyHouseNumber",
              "type": "string"
            },
            {
              "internalType": "string",
              "name": "propertyStreetName",
              "type": "string"
            },
            {
              "internalType": "string",
              "name": "propertyType",
              "type": "string"
            },
            {
              "internalType": "uint256",
              "name": "propertyArea",
              "type": "uint256"
            },
            {
              "internalType": "uint256",
              "name": "propertyPincode",
              "type": "uint256"
            },
            {
              "internalType": "string",
              "name": "propertyState",
              "type": "string"
            },
            {
              "internalType": "string",
              "name": "propertyVillage",
              "type": "string"
            },
            {
              "internalType": "string",
              "name": "propertyDistrict",
              "type": "string"
            },
            {
              "internalType": "string",
              "name": "propertyTaluka",
              "type": "string"
            },
            {
              "internalType": "string",
              "name": "ownerName",
              "type": "string"
            },
            {
              "internalType": "string",
              "name": "aadharCardNumber",
              "type": "string"
            },
            {
              "internalType": "string",
              "name": "panCardNumber",
              "type": "string"
            },
            {
              "internalType": "string",
              "name": "addressProofA",
              "type": "string"
            },
            {
              "internalType": "string",
              "name": "addressProofB",
              "type": "string"
            },
            {
              "internalType": "bool",
              "name": "transfered",
              "type": "bool"
            },
            {
              "internalType": "uint256",
              "name": "transferedTo",
              "type": "uint256"
            },
            {
              "internalType": "uint256[]",
              "name": "transferedFrom",
              "type": "uint256[]"
            },
            {
              "internalType": "uint256[]",
              "name": "propertySplitLandId",
              "type": "uint256[]"
            },
            {
              "internalType": "uint256",
              "name": "surveyNumber",
              "type": "uint256"
            },
            {
              "internalType": "uint256",
              "name": "subSurveyNumber",
              "type": "uint256"
            },
            {
              "internalType": "string",
              "name": "createdOn",
              "type": "string"
            },
            {
              "components": [
                {
                  "internalType": "string",
                  "name": "name",
                  "type": "string"
                },
                {
                  "internalType": "string",
                  "name": "link",
                  "type": "string"
                },
                {
                  "internalType": "string",
                  "name": "hashString",
                  "type": "string"
                },
                {
                  "internalType": "bool",
                  "name": "verified",
                  "type": "bool"
                }
              ],
              "internalType": "struct LandRegistry.document[]",
              "name": "documents",
              "type": "tuple[]"
            }
          ],
          "internalType": "struct LandRegistry.inputvariables",
          "name": "variable",
          "type": "tuple"
        }
      ],
      "name": "mergeProperties",
      "outputs": [],
      "stateMutability": "nonpayable",
      "type": "function"
    },
    {
      "inputs": [
        {
          "components": [
            {
              "internalType": "uint256",
              "name": "_propertyId",
              "type": "uint256"
            },
            {
              "internalType": "string",
              "name": "_createdOn",
              "type": "string"
            },
            {
              "internalType": "string[]",
              "name": "_ownerName",
              "type": "string[]"
            },
            {
              "internalType": "uint256[]",
              "name": "_propertyArea",
              "type": "uint256[]"
            },
            {
              "internalType": "string[]",
              "name": "_ownerAadhaarCardNumber",
              "type": "string[]"
            },
            {
              "internalType": "string[]",
              "name": "_ownerPanCardNumber",
              "type": "string[]"
            },
            {
              "internalType": "string[]",
              "name": "_ownerAddressProofA",
              "type": "string[]"
            },
            {
              "internalType": "string[]",
              "name": "_ownerAddressProofB",
              "type": "string[]"
            },
            {
              "internalType": "uint256[]",
              "name": "_surveyNumber",
              "type": "uint256[]"
            },
            {
              "internalType": "uint256[]",
              "name": "_subSurveyNumber",
              "type": "uint256[]"
            },
            {
              "internalType": "string[]",
              "name": "_documentsName",
              "type": "string[]"
            },
            {
              "internalType": "string[]",
              "name": "_documentsHash",
              "type": "string[]"
            },
            {
              "internalType": "string[]",
              "name": "_documentsLink",
              "type": "string[]"
            }
          ],
          "internalType": "struct LandRegistry.splitPropertyInputs",
          "name": "inputParameters",
          "type": "tuple"
        }
      ],
      "name": "splitProperty",
      "outputs": [],
      "stateMutability": "nonpayable",
      "type": "function"
    },
    {
      "inputs": [
        {
          "internalType": "uint256",
          "name": "_propertyId",
          "type": "uint256"
        }
      ],
      "name": "getProperty",
      "outputs": [
        {
          "components": [
            {
              "internalType": "string",
              "name": "propertyHouseNumber",
              "type": "string"
            },
            {
              "internalType": "string",
              "name": "propertyStreetName",
              "type": "string"
            },
            {
              "internalType": "string",
              "name": "propertyType",
              "type": "string"
            },
            {
              "internalType": "uint256",
              "name": "propertyArea",
              "type": "uint256"
            },
            {
              "internalType": "uint256",
              "name": "propertyPincode",
              "type": "uint256"
            },
            {
              "internalType": "string",
              "name": "propertyState",
              "type": "string"
            },
            {
              "internalType": "string",
              "name": "propertyVillage",
              "type": "string"
            },
            {
              "internalType": "string",
              "name": "propertyDistrict",
              "type": "string"
            },
            {
              "internalType": "string",
              "name": "propertyTaluka",
              "type": "string"
            },
            {
              "internalType": "string",
              "name": "ownerName",
              "type": "string"
            },
            {
              "internalType": "string",
              "name": "aadharCardNumber",
              "type": "string"
            },
            {
              "internalType": "string",
              "name": "panCardNumber",
              "type": "string"
            },
            {
              "internalType": "string",
              "name": "addressProofA",
              "type": "string"
            },
            {
              "internalType": "string",
              "name": "addressProofB",
              "type": "string"
            },
            {
              "internalType": "bool",
              "name": "transfered",
              "type": "bool"
            },
            {
              "internalType": "uint256",
              "name": "transferedTo",
              "type": "uint256"
            },
            {
              "internalType": "uint256[]",
              "name": "transferedFrom",
              "type": "uint256[]"
            },
            {
              "internalType": "uint256[]",
              "name": "propertySplitLandId",
              "type": "uint256[]"
            },
            {
              "internalType": "uint256",
              "name": "surveyNumber",
              "type": "uint256"
            },
            {
              "internalType": "uint256",
              "name": "subSurveyNumber",
              "type": "uint256"
            },
            {
              "internalType": "string",
              "name": "createdOn",
              "type": "string"
            },
            {
              "components": [
                {
                  "internalType": "string",
                  "name": "name",
                  "type": "string"
                },
                {
                  "internalType": "string",
                  "name": "link",
                  "type": "string"
                },
                {
                  "internalType": "string",
                  "name": "hashString",
                  "type": "string"
                },
                {
                  "internalType": "bool",
                  "name": "verified",
                  "type": "bool"
                }
              ],
              "internalType": "struct LandRegistry.document[]",
              "name": "documents",
              "type": "tuple[]"
            }
          ],
          "internalType": "struct LandRegistry.outputvariables",
          "name": "",
          "type": "tuple"
        }
      ],
      "stateMutability": "view",
      "type": "function"
    }
  ],
  "bytecode": "0x608060405234801561001057600080fd5b50614569806100206000396000f3fe608060405234801561001057600080fd5b50600436106100885760003560e01c8063529881e11161005b578063529881e114610139578063c361a33514610157578063ccda112814610175578063e59e87011461019157610088565b80631c376de11461008d57806332665ffb146100bd5780633b2badbf146100ed5780634ef1e12414610109575b600080fd5b6100a760048036038101906100a2919061349a565b6101ad565b6040516100b491906134f2565b60405180910390f35b6100d760048036038101906100d2919061350d565b6105d3565b6040516100e491906139f8565b60405180910390f35b61010760048036038101906101029190613a1a565b611e15565b005b610123600480360381019061011e919061350d565b6123e0565b60405161013091906134f2565b60405180910390f35b610141612404565b60405161014e91906134f2565b60405180910390f35b61015f612410565b60405161016c91906134f2565b60405180910390f35b61018f600480360381019061018a919061349a565b612416565b005b6101ab60048036038101906101a69190613ee9565b61265a565b005b600080600160006002600081546101c390613f61565b91905081905581526020019081526020016000209050600254816000018190555082600001518160010190816101f991906141b5565b50826020015181600201908161020f91906141b5565b50826040015181600301908161022591906141b5565b5082606001518160040181905550826080015181600501819055508260a0015181600601908161025591906141b5565b508260c0015181600701908161026b91906141b5565b508260e0015181600801908161028191906141b5565b5082610100015181600901908161029891906141b5565b5082610120015181600a0190816102af91906141b5565b5082610140015181600b0190816102c691906141b5565b5082610160015181600c0190816102dd91906141b5565b5082610180015181600d0190816102f491906141b5565b50826101a0015181600e01908161030b91906141b5565b50826101c0015181600f0160006101000a81548160ff021916908315150217905550826101e001518160100181905550826102000151816011019080519060200190610358929190612b82565b50826102200151816012019080519060200190610376929190612b82565b50826102400151816013018190555082610260015181601401819055508261028001518160150190816103a991906141b5565b5060005b836102a00151518110156105635760006040518060800160405280866102a0015184815181106103e0576103df614287565b5b6020026020010151600001518152602001866102a00151848151811061040957610408614287565b5b6020026020010151602001518152602001866102a00151848151811061043257610431614287565b5b602002602001015160400151815260200160011515815250905082601601856102a00151838151811061046857610467614287565b5b6020026020010151600001519080600181540180825580915050600190039060005260206000200160009091909190915090816104a591906141b5565b508083601701866102a0015184815181106104c3576104c2614287565b5b6020026020010151600001516040516104dc91906142f2565b908152602001604051809103902060008201518160000190816104ff91906141b5565b50602082015181600101908161051591906141b5565b50604082015181600201908161052b91906141b5565b5060608201518160030160006101000a81548160ff02191690831515021790555090505050808061055b90613f61565b9150506103ad565b50600060025490806001815401808255809150506001900390600052602060002001600090919091909150557fdaa872b103b86ce76d41c940c2d5709bec5fae546826ea8d60917d67234498986002546040516105c091906134f2565b60405180910390a1600254915050919050565b6105db612bcf565b60006001600084815260200190815260200160002090506060816017018260160160008154811061060f5761060e614287565b5b90600052602060002001604051610626919061438c565b908152602001604051809103902060405180608001604052908160008201805461064f90613fd8565b80601f016020809104026020016040519081016040528092919081815260200182805461067b90613fd8565b80156106c85780601f1061069d576101008083540402835291602001916106c8565b820191906000526020600020905b8154815290600101906020018083116106ab57829003601f168201915b505050505081526020016001820180546106e190613fd8565b80601f016020809104026020016040519081016040528092919081815260200182805461070d90613fd8565b801561075a5780601f1061072f5761010080835404028352916020019161075a565b820191906000526020600020905b81548152906001019060200180831161073d57829003601f168201915b5050505050815260200160028201805461077390613fd8565b80601f016020809104026020016040519081016040528092919081815260200182805461079f90613fd8565b80156107ec5780601f106107c1576101008083540402835291602001916107ec565b820191906000526020600020905b8154815290600101906020018083116107cf57829003601f168201915b505050505081526020016003820160009054906101000a900460ff1615151515815250508160008151811061082457610823614287565b5b6020026020010181905250816017018260160160018154811061084a57610849614287565b5b90600052602060002001604051610861919061438c565b908152602001604051809103902060405180608001604052908160008201805461088a90613fd8565b80601f01602080910402602001604051908101604052809291908181526020018280546108b690613fd8565b80156109035780601f106108d857610100808354040283529160200191610903565b820191906000526020600020905b8154815290600101906020018083116108e657829003601f168201915b5050505050815260200160018201805461091c90613fd8565b80601f016020809104026020016040519081016040528092919081815260200182805461094890613fd8565b80156109955780601f1061096a57610100808354040283529160200191610995565b820191906000526020600020905b81548152906001019060200180831161097857829003601f168201915b505050505081526020016002820180546109ae90613fd8565b80601f01602080910402602001604051908101604052809291908181526020018280546109da90613fd8565b8015610a275780601f106109fc57610100808354040283529160200191610a27565b820191906000526020600020905b815481529060010190602001808311610a0a57829003601f168201915b505050505081526020016003820160009054906101000a900460ff16151515158152505081600181518110610a5f57610a5e614287565b5b60200260200101819052508160170182601601600281548110610a8557610a84614287565b5b90600052602060002001604051610a9c919061438c565b9081526020016040518091039020604051806080016040529081600082018054610ac590613fd8565b80601f0160208091040260200160405190810160405280929190818152602001828054610af190613fd8565b8015610b3e5780601f10610b1357610100808354040283529160200191610b3e565b820191906000526020600020905b815481529060010190602001808311610b2157829003601f168201915b50505050508152602001600182018054610b5790613fd8565b80601f0160208091040260200160405190810160405280929190818152602001828054610b8390613fd8565b8015610bd05780601f10610ba557610100808354040283529160200191610bd0565b820191906000526020600020905b815481529060010190602001808311610bb357829003601f168201915b50505050508152602001600282018054610be990613fd8565b80601f0160208091040260200160405190810160405280929190818152602001828054610c1590613fd8565b8015610c625780601f10610c3757610100808354040283529160200191610c62565b820191906000526020600020905b815481529060010190602001808311610c4557829003601f168201915b505050505081526020016003820160009054906101000a900460ff16151515158152505081600281518110610c9a57610c99614287565b5b60200260200101819052508160170182601601600381548110610cc057610cbf614287565b5b90600052602060002001604051610cd7919061438c565b9081526020016040518091039020604051806080016040529081600082018054610d0090613fd8565b80601f0160208091040260200160405190810160405280929190818152602001828054610d2c90613fd8565b8015610d795780601f10610d4e57610100808354040283529160200191610d79565b820191906000526020600020905b815481529060010190602001808311610d5c57829003601f168201915b50505050508152602001600182018054610d9290613fd8565b80601f0160208091040260200160405190810160405280929190818152602001828054610dbe90613fd8565b8015610e0b5780601f10610de057610100808354040283529160200191610e0b565b820191906000526020600020905b815481529060010190602001808311610dee57829003601f168201915b50505050508152602001600282018054610e2490613fd8565b80601f0160208091040260200160405190810160405280929190818152602001828054610e5090613fd8565b8015610e9d5780601f10610e7257610100808354040283529160200191610e9d565b820191906000526020600020905b815481529060010190602001808311610e8057829003601f168201915b505050505081526020016003820160009054906101000a900460ff16151515158152505081600381518110610ed557610ed4614287565b5b60200260200101819052508160170182601601600481548110610efb57610efa614287565b5b90600052602060002001604051610f12919061438c565b9081526020016040518091039020604051806080016040529081600082018054610f3b90613fd8565b80601f0160208091040260200160405190810160405280929190818152602001828054610f6790613fd8565b8015610fb45780601f10610f8957610100808354040283529160200191610fb4565b820191906000526020600020905b815481529060010190602001808311610f9757829003601f168201915b50505050508152602001600182018054610fcd90613fd8565b80601f0160208091040260200160405190810160405280929190818152602001828054610ff990613fd8565b80156110465780601f1061101b57610100808354040283529160200191611046565b820191906000526020600020905b81548152906001019060200180831161102957829003601f168201915b5050505050815260200160028201805461105f90613fd8565b80601f016020809104026020016040519081016040528092919081815260200182805461108b90613fd8565b80156110d85780601f106110ad576101008083540402835291602001916110d8565b820191906000526020600020905b8154815290600101906020018083116110bb57829003601f168201915b505050505081526020016003820160009054906101000a900460ff161515151581525050816004815181106111105761110f614287565b5b6020026020010181905250816017018260160160058154811061113657611135614287565b5b9060005260206000200160405161114d919061438c565b908152602001604051809103902060405180608001604052908160008201805461117690613fd8565b80601f01602080910402602001604051908101604052809291908181526020018280546111a290613fd8565b80156111ef5780601f106111c4576101008083540402835291602001916111ef565b820191906000526020600020905b8154815290600101906020018083116111d257829003601f168201915b5050505050815260200160018201805461120890613fd8565b80601f016020809104026020016040519081016040528092919081815260200182805461123490613fd8565b80156112815780601f1061125657610100808354040283529160200191611281565b820191906000526020600020905b81548152906001019060200180831161126457829003601f168201915b5050505050815260200160028201805461129a90613fd8565b80601f01602080910402602001604051908101604052809291908181526020018280546112c690613fd8565b80156113135780601f106112e857610100808354040283529160200191611313565b820191906000526020600020905b8154815290600101906020018083116112f657829003601f168201915b505050505081526020016003820160009054906101000a900460ff1615151515815250508160058151811061134b5761134a614287565b5b6020026020010181905250816017018260160160068154811061137157611370614287565b5b90600052602060002001604051611388919061438c565b90815260200160405180910390206040518060800160405290816000820180546113b190613fd8565b80601f01602080910402602001604051908101604052809291908181526020018280546113dd90613fd8565b801561142a5780601f106113ff5761010080835404028352916020019161142a565b820191906000526020600020905b81548152906001019060200180831161140d57829003601f168201915b5050505050815260200160018201805461144390613fd8565b80601f016020809104026020016040519081016040528092919081815260200182805461146f90613fd8565b80156114bc5780601f10611491576101008083540402835291602001916114bc565b820191906000526020600020905b81548152906001019060200180831161149f57829003601f168201915b505050505081526020016002820180546114d590613fd8565b80601f016020809104026020016040519081016040528092919081815260200182805461150190613fd8565b801561154e5780601f106115235761010080835404028352916020019161154e565b820191906000526020600020905b81548152906001019060200180831161153157829003601f168201915b505050505081526020016003820160009054906101000a900460ff1615151515815250508160068151811061158657611585614287565b5b60200260200101819052506000604051806102c001604052808460010180546115ae90613fd8565b80601f01602080910402602001604051908101604052809291908181526020018280546115da90613fd8565b80156116275780601f106115fc57610100808354040283529160200191611627565b820191906000526020600020905b81548152906001019060200180831161160a57829003601f168201915b5050505050815260200184600201805461164090613fd8565b80601f016020809104026020016040519081016040528092919081815260200182805461166c90613fd8565b80156116b95780601f1061168e576101008083540402835291602001916116b9565b820191906000526020600020905b81548152906001019060200180831161169c57829003601f168201915b505050505081526020018460030180546116d290613fd8565b80601f01602080910402602001604051908101604052809291908181526020018280546116fe90613fd8565b801561174b5780601f106117205761010080835404028352916020019161174b565b820191906000526020600020905b81548152906001019060200180831161172e57829003601f168201915b50505050508152602001846004015481526020018460050154815260200184600601805461177890613fd8565b80601f01602080910402602001604051908101604052809291908181526020018280546117a490613fd8565b80156117f15780601f106117c6576101008083540402835291602001916117f1565b820191906000526020600020905b8154815290600101906020018083116117d457829003601f168201915b5050505050815260200184600701805461180a90613fd8565b80601f016020809104026020016040519081016040528092919081815260200182805461183690613fd8565b80156118835780601f1061185857610100808354040283529160200191611883565b820191906000526020600020905b81548152906001019060200180831161186657829003601f168201915b5050505050815260200184600801805461189c90613fd8565b80601f01602080910402602001604051908101604052809291908181526020018280546118c890613fd8565b80156119155780601f106118ea57610100808354040283529160200191611915565b820191906000526020600020905b8154815290600101906020018083116118f857829003601f168201915b5050505050815260200184600901805461192e90613fd8565b80601f016020809104026020016040519081016040528092919081815260200182805461195a90613fd8565b80156119a75780601f1061197c576101008083540402835291602001916119a7565b820191906000526020600020905b81548152906001019060200180831161198a57829003601f168201915b5050505050815260200184600a0180546119c090613fd8565b80601f01602080910402602001604051908101604052809291908181526020018280546119ec90613fd8565b8015611a395780601f10611a0e57610100808354040283529160200191611a39565b820191906000526020600020905b815481529060010190602001808311611a1c57829003601f168201915b5050505050815260200184600b018054611a5290613fd8565b80601f0160208091040260200160405190810160405280929190818152602001828054611a7e90613fd8565b8015611acb5780601f10611aa057610100808354040283529160200191611acb565b820191906000526020600020905b815481529060010190602001808311611aae57829003601f168201915b5050505050815260200184600c018054611ae490613fd8565b80601f0160208091040260200160405190810160405280929190818152602001828054611b1090613fd8565b8015611b5d5780601f10611b3257610100808354040283529160200191611b5d565b820191906000526020600020905b815481529060010190602001808311611b4057829003601f168201915b5050505050815260200184600d018054611b7690613fd8565b80601f0160208091040260200160405190810160405280929190818152602001828054611ba290613fd8565b8015611bef5780601f10611bc457610100808354040283529160200191611bef565b820191906000526020600020905b815481529060010190602001808311611bd257829003601f168201915b5050505050815260200184600e018054611c0890613fd8565b80601f0160208091040260200160405190810160405280929190818152602001828054611c3490613fd8565b8015611c815780601f10611c5657610100808354040283529160200191611c81565b820191906000526020600020905b815481529060010190602001808311611c6457829003601f168201915b5050505050815260200184600f0160009054906101000a900460ff16151581526020018460100154815260200184601101805480602002602001604051908101604052809291908181526020018280548015611cfc57602002820191906000526020600020905b815481526020019060010190808311611ce8575b5050505050815260200184601201805480602002602001604051908101604052809291908181526020018280548015611d5457602002820191906000526020600020905b815481526020019060010190808311611d40575b505050505081526020018460130154815260200184601401548152602001846015018054611d8190613fd8565b80601f0160208091040260200160405190810160405280929190818152602001828054611dad90613fd8565b8015611dfa5780601f10611dcf57610100808354040283529160200191611dfa565b820191906000526020600020905b815481529060010190602001808311611ddd57829003601f168201915b50505050508152602001838152509050809350505050919050565b60006001600089600081518110611e2f57611e2e614287565b5b602002602001015181526020019081526020016000209050600081600a018054611e5890613fd8565b905003611e9a576040517f08c379a0000000000000000000000000000000000000000000000000000000008152600401611e9190614400565b60405180910390fd5b60606000604051806102c00160405280846001018054611eb990613fd8565b80601f0160208091040260200160405190810160405280929190818152602001828054611ee590613fd8565b8015611f325780601f10611f0757610100808354040283529160200191611f32565b820191906000526020600020905b815481529060010190602001808311611f1557829003601f168201915b50505050508152602001846002018054611f4b90613fd8565b80601f0160208091040260200160405190810160405280929190818152602001828054611f7790613fd8565b8015611fc45780601f10611f9957610100808354040283529160200191611fc4565b820191906000526020600020905b815481529060010190602001808311611fa757829003601f168201915b50505050508152602001846003018054611fdd90613fd8565b80601f016020809104026020016040519081016040528092919081815260200182805461200990613fd8565b80156120565780601f1061202b57610100808354040283529160200191612056565b820191906000526020600020905b81548152906001019060200180831161203957829003601f168201915b50505050508152602001846004015481526020018460050154815260200184600601805461208390613fd8565b80601f01602080910402602001604051908101604052809291908181526020018280546120af90613fd8565b80156120fc5780601f106120d1576101008083540402835291602001916120fc565b820191906000526020600020905b8154815290600101906020018083116120df57829003601f168201915b5050505050815260200184600701805461211590613fd8565b80601f016020809104026020016040519081016040528092919081815260200182805461214190613fd8565b801561218e5780601f106121635761010080835404028352916020019161218e565b820191906000526020600020905b81548152906001019060200180831161217157829003601f168201915b505050505081526020018460080180546121a790613fd8565b80601f01602080910402602001604051908101604052809291908181526020018280546121d390613fd8565b80156122205780601f106121f557610100808354040283529160200191612220565b820191906000526020600020905b81548152906001019060200180831161220357829003601f168201915b5050505050815260200184600901805461223990613fd8565b80601f016020809104026020016040519081016040528092919081815260200182805461226590613fd8565b80156122b25780601f10612287576101008083540402835291602001916122b2565b820191906000526020600020905b81548152906001019060200180831161229557829003601f168201915b505050505081526020018a8152602001898152602001888152602001878152602001868152602001600015158152602001600081526020018b8152602001838152602001846013015481526020018460140154815260200184601501805461231990613fd8565b80601f016020809104026020016040519081016040528092919081815260200182805461234590613fd8565b80156123925780601f1061236757610100808354040283529160200191612392565b820191906000526020600020905b81548152906001019060200180831161237557829003601f168201915b505050505081526020018581525090506123ab816101ad565b50600183600f0160006101000a81548160ff021916908315150217905550600254836010018190555050505050505050505050565b600081815481106123f057600080fd5b906000526020600020016000915090505481565b60008080549050905090565b60025481565b60006001600060026000815461242b90613f61565b919050819055815260200190815260200160002090506002548160000181905550816000015181600101908161246191906141b5565b50816020015181600201908161247791906141b5565b50816040015181600301908161248d91906141b5565b5081606001518160040181905550816080015181600501819055508160a001518160060190816124bd91906141b5565b508160c001518160070190816124d391906141b5565b508160e001518160080190816124e991906141b5565b5081610100015181600901908161250091906141b5565b5081610120015181600a01908161251791906141b5565b5081610140015181600b01908161252e91906141b5565b5081610160015181600c01908161254591906141b5565b5081610180015181600d01908161255c91906141b5565b50816101a0015181600e01908161257391906141b5565b50816102400151816013018190555081610260015181601401819055508161028001518160150190816125a691906141b5565b506000600254908060018154018082558091505060019003906000526020600020016000909190919091505560005b8261020001515181101561265557600060016000856102000151848151811061260157612600614287565b5b602002602001015181526020019081526020016000209050600181600f0160006101000a81548160ff021916908315150217905550600254816010018190555050808061264d90613f61565b9150506125d5565b505050565b600060016000836000015181526020019081526020016000209050600181600f0160006101000a81548160ff02191690831515021790555060005b826060015151811015612b7d576000600160006002600081546126b790613f61565b91905081905581526020019081526020016000209050826001018160010190816126e1919061444b565b50826002018160020190816126f6919061444b565b508260030181600301908161270b919061444b565b5082600401548160040181905550826005015481600501819055508260060181600601908161273a919061444b565b508260070181600701908161274f919061444b565b5082600801816008019081612764919061444b565b5082600901816009019081612779919061444b565b5082600f0160009054906101000a900460ff1681600f0160006101000a81548160ff02191690831515021790555082601001548160100181905550806011018460000151908060018154018082558091505060019003906000526020600020016000909190919091505560025481600001819055508360600151828151811061280557612804614287565b5b602002602001015181600401819055508360400151828151811061282c5761282b614287565b5b602002602001015181600a01908161284491906141b5565b508360800151828151811061285c5761285b614287565b5b602002602001015181600b01908161287491906141b5565b508360a00151828151811061288c5761288b614287565b5b602002602001015181600c0190816128a491906141b5565b508360c0015182815181106128bc576128bb614287565b5b602002602001015181600d0190816128d491906141b5565b508360e0015182815181106128ec576128eb614287565b5b602002602001015181600e01908161290491906141b5565b50836101000151828151811061291d5761291c614287565b5b60200260200101518160130181905550836101200151828151811061294557612944614287565b5b60200260200101518160140181905550836020015181601501908161296a91906141b5565b5060005b84610140015151811015612b10576000604051806080016040528087610140015184815181106129a1576129a0614287565b5b6020026020010151815260200187610180015184815181106129c6576129c5614287565b5b6020026020010151815260200187610160015184815181106129eb576129ea614287565b5b60200260200101518152602001600115158152509050826016018661014001518381518110612a1d57612a1c614287565b5b6020026020010151908060018154018082558091505060019003906000526020600020016000909190919091509081612a5691906141b5565b5080836017018761014001518481518110612a7457612a73614287565b5b6020026020010151604051612a8991906142f2565b90815260200160405180910390206000820151816000019081612aac91906141b5565b506020820151816001019081612ac291906141b5565b506040820151816002019081612ad891906141b5565b5060608201518160030160006101000a81548160ff021916908315150217905550905050508080612b0890613f61565b91505061296e565b5060006002549080600181540180825580915050600190039060005260206000200160009091909190915055826012016002549080600181540180825580915050600190039060005260206000200160009091909190915055508080612b7590613f61565b915050612695565b505050565b828054828255906000526020600020908101928215612bbe579160200282015b82811115612bbd578251825591602001919060010190612ba2565b5b509050612bcb9190612c78565b5090565b604051806102c001604052806060815260200160608152602001606081526020016000815260200160008152602001606081526020016060815260200160608152602001606081526020016060815260200160608152602001606081526020016060815260200160608152602001600015158152602001600081526020016060815260200160608152602001600081526020016000815260200160608152602001606081525090565b5b80821115612c91576000816000905550600101612c79565b5090565b6000604051905090565b600080fd5b600080fd5b600080fd5b6000601f19601f8301169050919050565b7f4e487b7100000000000000000000000000000000000000000000000000000000600052604160045260246000fd5b612cf782612cae565b810181811067ffffffffffffffff82111715612d1657612d15612cbf565b5b80604052505050565b6000612d29612c95565b9050612d358282612cee565b919050565b600080fd5b600080fd5b600080fd5b600067ffffffffffffffff821115612d6457612d63612cbf565b5b612d6d82612cae565b9050602081019050919050565b82818337600083830152505050565b6000612d9c612d9784612d49565b612d1f565b905082815260208101848484011115612db857612db7612d44565b5b612dc3848285612d7a565b509392505050565b600082601f830112612de057612ddf612d3f565b5b8135612df0848260208601612d89565b91505092915050565b6000819050919050565b612e0c81612df9565b8114612e1757600080fd5b50565b600081359050612e2981612e03565b92915050565b60008115159050919050565b612e4481612e2f565b8114612e4f57600080fd5b50565b600081359050612e6181612e3b565b92915050565b600067ffffffffffffffff821115612e8257612e81612cbf565b5b602082029050602081019050919050565b600080fd5b6000612eab612ea684612e67565b612d1f565b90508083825260208201905060208402830185811115612ece57612ecd612e93565b5b835b81811015612ef75780612ee38882612e1a565b845260208401935050602081019050612ed0565b5050509392505050565b600082601f830112612f1657612f15612d3f565b5b8135612f26848260208601612e98565b91505092915050565b600067ffffffffffffffff821115612f4a57612f49612cbf565b5b602082029050602081019050919050565b600060808284031215612f7157612f70612ca9565b5b612f7b6080612d1f565b9050600082013567ffffffffffffffff811115612f9b57612f9a612d3a565b5b612fa784828501612dcb565b600083015250602082013567ffffffffffffffff811115612fcb57612fca612d3a565b5b612fd784828501612dcb565b602083015250604082013567ffffffffffffffff811115612ffb57612ffa612d3a565b5b61300784828501612dcb565b604083015250606061301b84828501612e52565b60608301525092915050565b600061303a61303584612f2f565b612d1f565b9050808382526020820190506020840283018581111561305d5761305c612e93565b5b835b818110156130a457803567ffffffffffffffff81111561308257613081612d3f565b5b80860161308f8982612f5b565b8552602085019450505060208101905061305f565b5050509392505050565b600082601f8301126130c3576130c2612d3f565b5b81356130d3848260208601613027565b91505092915050565b60006102c082840312156130f3576130f2612ca9565b5b6130fe6102c0612d1f565b9050600082013567ffffffffffffffff81111561311e5761311d612d3a565b5b61312a84828501612dcb565b600083015250602082013567ffffffffffffffff81111561314e5761314d612d3a565b5b61315a84828501612dcb565b602083015250604082013567ffffffffffffffff81111561317e5761317d612d3a565b5b61318a84828501612dcb565b604083015250606061319e84828501612e1a565b60608301525060806131b284828501612e1a565b60808301525060a082013567ffffffffffffffff8111156131d6576131d5612d3a565b5b6131e284828501612dcb565b60a08301525060c082013567ffffffffffffffff81111561320657613205612d3a565b5b61321284828501612dcb565b60c08301525060e082013567ffffffffffffffff81111561323657613235612d3a565b5b61324284828501612dcb565b60e08301525061010082013567ffffffffffffffff81111561326757613266612d3a565b5b61327384828501612dcb565b6101008301525061012082013567ffffffffffffffff81111561329957613298612d3a565b5b6132a584828501612dcb565b6101208301525061014082013567ffffffffffffffff8111156132cb576132ca612d3a565b5b6132d784828501612dcb565b6101408301525061016082013567ffffffffffffffff8111156132fd576132fc612d3a565b5b61330984828501612dcb565b6101608301525061018082013567ffffffffffffffff81111561332f5761332e612d3a565b5b61333b84828501612dcb565b610180830152506101a082013567ffffffffffffffff81111561336157613360612d3a565b5b61336d84828501612dcb565b6101a0830152506101c061338384828501612e52565b6101c0830152506101e061339984828501612e1a565b6101e08301525061020082013567ffffffffffffffff8111156133bf576133be612d3a565b5b6133cb84828501612f01565b6102008301525061022082013567ffffffffffffffff8111156133f1576133f0612d3a565b5b6133fd84828501612f01565b6102208301525061024061341384828501612e1a565b6102408301525061026061342984828501612e1a565b6102608301525061028082013567ffffffffffffffff81111561344f5761344e612d3a565b5b61345b84828501612dcb565b610280830152506102a082013567ffffffffffffffff81111561348157613480612d3a565b5b61348d848285016130ae565b6102a08301525092915050565b6000602082840312156134b0576134af612c9f565b5b600082013567ffffffffffffffff8111156134ce576134cd612ca4565b5b6134da848285016130dc565b91505092915050565b6134ec81612df9565b82525050565b600060208201905061350760008301846134e3565b92915050565b60006020828403121561352357613522612c9f565b5b600061353184828501612e1a565b91505092915050565b600081519050919050565b600082825260208201905092915050565b60005b83811015613574578082015181840152602081019050613559565b60008484015250505050565b600061358b8261353a565b6135958185613545565b93506135a5818560208601613556565b6135ae81612cae565b840191505092915050565b6135c281612df9565b82525050565b6135d181612e2f565b82525050565b600081519050919050565b600082825260208201905092915050565b6000819050602082019050919050565b600061360f83836135b9565b60208301905092915050565b6000602082019050919050565b6000613633826135d7565b61363d81856135e2565b9350613648836135f3565b8060005b838110156136795781516136608882613603565b975061366b8361361b565b92505060018101905061364c565b5085935050505092915050565b600081519050919050565b600082825260208201905092915050565b6000819050602082019050919050565b600060808301600083015184820360008601526136cf8282613580565b915050602083015184820360208601526136e98282613580565b915050604083015184820360408601526137038282613580565b915050606083015161371860608601826135c8565b508091505092915050565b600061372f83836136b2565b905092915050565b6000602082019050919050565b600061374f82613686565b6137598185613691565b93508360208202850161376b856136a2565b8060005b858110156137a757848403895281516137888582613723565b945061379383613737565b925060208a0199505060018101905061376f565b50829750879550505050505092915050565b60006102c08301600083015184820360008601526137d78282613580565b915050602083015184820360208601526137f18282613580565b9150506040830151848203604086015261380b8282613580565b915050606083015161382060608601826135b9565b50608083015161383360808601826135b9565b5060a083015184820360a086015261384b8282613580565b91505060c083015184820360c08601526138658282613580565b91505060e083015184820360e086015261387f8282613580565b91505061010083015184820361010086015261389b8282613580565b9150506101208301518482036101208601526138b78282613580565b9150506101408301518482036101408601526138d38282613580565b9150506101608301518482036101608601526138ef8282613580565b91505061018083015184820361018086015261390b8282613580565b9150506101a08301518482036101a08601526139278282613580565b9150506101c083015161393e6101c08601826135c8565b506101e08301516139536101e08601826135b9565b5061020083015184820361020086015261396d8282613628565b9150506102208301518482036102208601526139898282613628565b9150506102408301516139a06102408601826135b9565b506102608301516139b56102608601826135b9565b506102808301518482036102808601526139cf8282613580565b9150506102a08301518482036102a08601526139eb8282613744565b9150508091505092915050565b60006020820190508181036000830152613a1281846137b9565b905092915050565b600080600080600080600060e0888a031215613a3957613a38612c9f565b5b600088013567ffffffffffffffff811115613a5757613a56612ca4565b5b613a638a828b01612f01565b975050602088013567ffffffffffffffff811115613a8457613a83612ca4565b5b613a908a828b01612dcb565b965050604088013567ffffffffffffffff811115613ab157613ab0612ca4565b5b613abd8a828b01612dcb565b955050606088013567ffffffffffffffff811115613ade57613add612ca4565b5b613aea8a828b01612dcb565b945050608088013567ffffffffffffffff811115613b0b57613b0a612ca4565b5b613b178a828b01612dcb565b93505060a088013567ffffffffffffffff811115613b3857613b37612ca4565b5b613b448a828b01612dcb565b92505060c088013567ffffffffffffffff811115613b6557613b64612ca4565b5b613b718a828b016130ae565b91505092959891949750929550565b600067ffffffffffffffff821115613b9b57613b9a612cbf565b5b602082029050602081019050919050565b6000613bbf613bba84613b80565b612d1f565b90508083825260208201905060208402830185811115613be257613be1612e93565b5b835b81811015613c2957803567ffffffffffffffff811115613c0757613c06612d3f565b5b808601613c148982612dcb565b85526020850194505050602081019050613be4565b5050509392505050565b600082601f830112613c4857613c47612d3f565b5b8135613c58848260208601613bac565b91505092915050565b60006101a08284031215613c7857613c77612ca9565b5b613c836101a0612d1f565b90506000613c9384828501612e1a565b600083015250602082013567ffffffffffffffff811115613cb757613cb6612d3a565b5b613cc384828501612dcb565b602083015250604082013567ffffffffffffffff811115613ce757613ce6612d3a565b5b613cf384828501613c33565b604083015250606082013567ffffffffffffffff811115613d1757613d16612d3a565b5b613d2384828501612f01565b606083015250608082013567ffffffffffffffff811115613d4757613d46612d3a565b5b613d5384828501613c33565b60808301525060a082013567ffffffffffffffff811115613d7757613d76612d3a565b5b613d8384828501613c33565b60a08301525060c082013567ffffffffffffffff811115613da757613da6612d3a565b5b613db384828501613c33565b60c08301525060e082013567ffffffffffffffff811115613dd757613dd6612d3a565b5b613de384828501613c33565b60e08301525061010082013567ffffffffffffffff811115613e0857613e07612d3a565b5b613e1484828501612f01565b6101008301525061012082013567ffffffffffffffff811115613e3a57613e39612d3a565b5b613e4684828501612f01565b6101208301525061014082013567ffffffffffffffff811115613e6c57613e6b612d3a565b5b613e7884828501613c33565b6101408301525061016082013567ffffffffffffffff811115613e9e57613e9d612d3a565b5b613eaa84828501613c33565b6101608301525061018082013567ffffffffffffffff811115613ed057613ecf612d3a565b5b613edc84828501613c33565b6101808301525092915050565b600060208284031215613eff57613efe612c9f565b5b600082013567ffffffffffffffff811115613f1d57613f1c612ca4565b5b613f2984828501613c61565b91505092915050565b7f4e487b7100000000000000000000000000000000000000000000000000000000600052601160045260246000fd5b6000613f6c82612df9565b91507fffffffffffffffffffffffffffffffffffffffffffffffffffffffffffffffff8203613f9e57613f9d613f32565b5b600182019050919050565b7f4e487b7100000000000000000000000000000000000000000000000000000000600052602260045260246000fd5b60006002820490506001821680613ff057607f821691505b60208210810361400357614002613fa9565b5b50919050565b60008190508160005260206000209050919050565b60006020601f8301049050919050565b600082821b905092915050565b60006008830261406b7fffffffffffffffffffffffffffffffffffffffffffffffffffffffffffffffff8261402e565b614075868361402e565b95508019841693508086168417925050509392505050565b6000819050919050565b60006140b26140ad6140a884612df9565b61408d565b612df9565b9050919050565b6000819050919050565b6140cc83614097565b6140e06140d8826140b9565b84845461403b565b825550505050565b600090565b6140f56140e8565b6141008184846140c3565b505050565b5b81811015614124576141196000826140ed565b600181019050614106565b5050565b601f8211156141695761413a81614009565b6141438461401e565b81016020851015614152578190505b61416661415e8561401e565b830182614105565b50505b505050565b600082821c905092915050565b600061418c6000198460080261416e565b1980831691505092915050565b60006141a5838361417b565b9150826002028217905092915050565b6141be8261353a565b67ffffffffffffffff8111156141d7576141d6612cbf565b5b6141e18254613fd8565b6141ec828285614128565b600060209050601f83116001811461421f576000841561420d578287015190505b6142178582614199565b86555061427f565b601f19841661422d86614009565b60005b8281101561425557848901518255600182019150602085019450602081019050614230565b86831015614272578489015161426e601f89168261417b565b8355505b6001600288020188555050505b505050505050565b7f4e487b7100000000000000000000000000000000000000000000000000000000600052603260045260246000fd5b600081905092915050565b60006142cc8261353a565b6142d681856142b6565b93506142e6818560208601613556565b80840191505092915050565b60006142fe82846142c1565b915081905092915050565b6000815461431681613fd8565b61432081866142b6565b9450600182166000811461433b576001811461435057614383565b60ff1983168652811515820286019350614383565b61435985614009565b60005b8381101561437b5781548189015260018201915060208101905061435c565b838801955050505b50505092915050565b60006143988284614309565b915081905092915050565b600082825260208201905092915050565b7f50726f706572747920646f6573206e6f74206578697374000000000000000000600082015250565b60006143ea6017836143a3565b91506143f5826143b4565b602082019050919050565b60006020820190508181036000830152614419816143dd565b9050919050565b60008154905061442f81613fd8565b9050919050565b60008190508160005260206000209050919050565b818103614459575050614531565b61446282614420565b67ffffffffffffffff81111561447b5761447a612cbf565b5b6144858254613fd8565b614490828285614128565b6000601f8311600181146144bf57600084156144ad578287015490505b6144b78582614199565b86555061452a565b601f1984166144cd87614436565b96506144d886614009565b60005b82811015614500578489015482556001820191506001850194506020810190506144db565b8683101561451d5784890154614519601f89168261417b565b8355505b6001600288020188555050505b5050505050505b56fea264697066735822122075fc516372824e914374f476922b62499d7ad8c4ab7ae89b68e0e44fb569546664736f6c63430008110033",
  "immutableReferences": {},
  "source": "// SPDX-License-Identifier: MIT\r\npragma solidity ^0.8.0;\r\n\r\ncontract LandRegistry {\r\n    // all land id stored\r\n    uint256[] public registerdLands;\r\n\r\n    event sendPropertyId(uint256 _id);\r\n\r\n    function getRegisteredLandCount() public view returns (uint256) {\r\n        return registerdLands.length;\r\n    }\r\n\r\n    struct document {\r\n        string name;\r\n        string link;\r\n        string hashString;\r\n        bool verified;\r\n    }\r\n\r\n    struct User {\r\n        string firstName;\r\n        string lastName;\r\n        string aadharCardNumber;\r\n        string panCardNumber;\r\n        string[] addressProofs;\r\n    }\r\n\r\n    struct Property {\r\n        // property details\r\n        uint256 propertyId;\r\n        string propertyHouseNumber;\r\n        string propertyStreetName;\r\n        string propertyType;\r\n        uint256 propertyArea;\r\n        uint256 propertyPincode;\r\n        string propertyState;\r\n        string propertyVillage;\r\n        string propertyDistrict;\r\n        string propertyTaluka;\r\n        // owner details\r\n        string ownerName;\r\n        string aadharCardNumber;\r\n        string panCardNumber;\r\n        string addressProofA;\r\n        string addressProofB;\r\n        // transfer details (if any)\r\n        bool transfered;\r\n        uint256 transferedTo;\r\n        uint256[] transferedFrom;\r\n        uint256[] propertySplitLandId;\r\n        // ownership details\r\n        uint256 surveyNumber;\r\n        uint256 subSurveyNumber;\r\n        string createdOn;\r\n        // documents\r\n        string[] documentNames;\r\n        mapping(string => document) documents;\r\n    }\r\n\r\n    // use previous Property struct to create new property\r\n    struct inputvariables {\r\n        // property details\r\n        string propertyHouseNumber;\r\n        string propertyStreetName;\r\n        string propertyType;\r\n        uint256 propertyArea;\r\n        uint256 propertyPincode;\r\n        string propertyState;\r\n        string propertyVillage;\r\n        string propertyDistrict;\r\n        string propertyTaluka;\r\n        // owner details\r\n        string ownerName;\r\n        string aadharCardNumber;\r\n        string panCardNumber;\r\n        string addressProofA;\r\n        string addressProofB;\r\n        // transfer details (if any)\r\n        bool transfered;\r\n        uint256 transferedTo;\r\n        uint256[] transferedFrom;\r\n        uint256[] propertySplitLandId;\r\n        // ownership details\r\n        uint256 surveyNumber;\r\n        uint256 subSurveyNumber;\r\n        string createdOn;\r\n        // documents\r\n        document[] documents;\r\n    }\r\n\r\n    struct outputvariables {\r\n        // uint256 propertyId;\r\n        // property details\r\n        string propertyHouseNumber;\r\n        string propertyStreetName;\r\n        string propertyType;\r\n        uint256 propertyArea;\r\n        uint256 propertyPincode;\r\n        string propertyState;\r\n        string propertyVillage;\r\n        string propertyDistrict;\r\n        string propertyTaluka;\r\n        // owner details\r\n        string ownerName;\r\n        string aadharCardNumber;\r\n        string panCardNumber;\r\n        string addressProofA;\r\n        string addressProofB;\r\n        // transfer details (if any)\r\n        bool transfered;\r\n        uint256 transferedTo;\r\n        uint256[] transferedFrom;\r\n        uint256[] propertySplitLandId;\r\n        // ownership details\r\n        uint256 surveyNumber;\r\n        uint256 subSurveyNumber;\r\n        string createdOn;\r\n        // documents\r\n        document[] documents;\r\n        // string[] docName;\r\n        // string[] docLink;\r\n        // string[] docHashString;\r\n        // bool[] docVerified;\r\n    }\r\n\r\n    // we are not using public below as solidity doesnt allow netested fetching by default\r\n    mapping(uint256 => Property) properties;\r\n    uint256 public propertyCount;\r\n\r\n    // event PropertyMerged(uint256 id1, uint256 id2, uint256 mergedId);\r\n    // event PropertySplit(uint256 id, uint256 area1, uint256 area2, uint256 splitId1, uint256 splitId2);\r\n\r\n    function registerNewProperty(\r\n        // fill all the details of the property\r\n        inputvariables memory variable\r\n    ) public returns (uint256) {\r\n        Property storage tempProperty = properties[++propertyCount];\r\n        tempProperty.propertyId = propertyCount;\r\n\r\n        // property details\r\n        tempProperty.propertyHouseNumber = variable.propertyHouseNumber;\r\n        tempProperty.propertyStreetName = variable.propertyStreetName;\r\n        tempProperty.propertyType = variable.propertyType;\r\n        tempProperty.propertyArea = variable.propertyArea;\r\n        tempProperty.propertyPincode = variable.propertyPincode;\r\n        tempProperty.propertyState = variable.propertyState;\r\n        tempProperty.propertyVillage = variable.propertyVillage;\r\n        tempProperty.propertyDistrict = variable.propertyDistrict;\r\n        tempProperty.propertyTaluka = variable.propertyTaluka;\r\n\r\n        // owner details\r\n        tempProperty.ownerName = variable.ownerName;\r\n        tempProperty.aadharCardNumber = variable.aadharCardNumber;\r\n        tempProperty.panCardNumber = variable.panCardNumber;\r\n        tempProperty.addressProofA = variable.addressProofA;\r\n        tempProperty.addressProofB = variable.addressProofB;\r\n\r\n        // transfer details (if any)\r\n        tempProperty.transfered = variable.transfered;\r\n        tempProperty.transferedTo = variable.transferedTo;\r\n        tempProperty.transferedFrom = variable.transferedFrom;\r\n        tempProperty.propertySplitLandId = variable.propertySplitLandId;\r\n\r\n        // ownership details\r\n        tempProperty.surveyNumber = variable.surveyNumber;\r\n        tempProperty.subSurveyNumber = variable.subSurveyNumber;\r\n        tempProperty.createdOn = variable.createdOn;\r\n\r\n        for (uint256 i = 0; i < variable.documents.length; i++) {\r\n            document memory newDocument = document(\r\n                variable.documents[i].name,\r\n                variable.documents[i].link,\r\n                variable.documents[i].hashString,\r\n                true\r\n            );\r\n            tempProperty.documentNames.push(variable.documents[i].name);\r\n            tempProperty.documents[variable.documents[i].name] = newDocument;\r\n        }\r\n\r\n        registerdLands.push(propertyCount);\r\n        emit sendPropertyId(propertyCount);\r\n        return propertyCount;\r\n    }\r\n\r\n    function transferOwnership(\r\n        // the input is taken as array because other methods give out error\r\n        uint256[] memory _propertyId,\r\n        string memory _newOwnerName,\r\n        string memory _newOwnerAadhaarCardNumber,\r\n        string memory _newOwnerPanCardNumber,\r\n        string memory _newOwnerAddressProofA,\r\n        string memory _newOwnerAddressProofB,\r\n        // documents\r\n        document[] memory documents\r\n    ) public {\r\n        Property storage property = properties[_propertyId[0]];\r\n        require(\r\n            bytes(property.ownerName).length != 0,\r\n            \"Property does not exist\"\r\n        );\r\n        // property.ownerName = _newOwnerName;\r\n        // property.aadharCardNumber = _newOwnerAadhaarCardNumber;\r\n        // property.panCardNumber = _newOwnerPanCardNumber;\r\n        // property.addressProofA = _newOwnerAddressProofA;\r\n        // property.addressProofB = _newOwnerAddressProofB;\r\n\r\n        uint256[] memory splitLandID;\r\n        // setting struct values\r\n        inputvariables memory newProperty = inputvariables(\r\n            property.propertyHouseNumber,\r\n            property.propertyStreetName,\r\n            property.propertyType,\r\n            property.propertyArea,\r\n            property.propertyPincode,\r\n            property.propertyState,\r\n            property.propertyVillage,\r\n            property.propertyDistrict,\r\n            property.propertyTaluka,\r\n            _newOwnerName,\r\n            _newOwnerAadhaarCardNumber,\r\n            _newOwnerPanCardNumber,\r\n            _newOwnerAddressProofA,\r\n            _newOwnerAddressProofB,\r\n            false,\r\n            0,\r\n            // below is transferred from\r\n            _propertyId,\r\n            splitLandID,\r\n            property.surveyNumber,\r\n            property.subSurveyNumber,\r\n            property.createdOn,\r\n            documents\r\n        );\r\n        // for (uint256 i = 0; i < documents.length; i++) {\r\n        //     document memory newDocument = document(\r\n        //         documents[i].name,\r\n        //         documents[i].link,\r\n        //         documents[i].hashString,\r\n        //         true\r\n        //     );\r\n        //     newProperty.documentNames.push(documents[i].name);\r\n        //     newProperty.documents[documents[i].name] = newDocument;\r\n        // }\r\n        // calling registerNewProperty Function to create new successor\r\n        registerNewProperty(newProperty);\r\n\r\n        property.transfered = true;\r\n        property.transferedTo = propertyCount;\r\n    }\r\n\r\n    function mergeProperties(inputvariables memory variable) public {\r\n        // creating new merged property\r\n        Property storage property = properties[++propertyCount];\r\n\r\n        property.propertyId = propertyCount;\r\n        property.propertyHouseNumber = variable.propertyHouseNumber;\r\n        property.propertyStreetName = variable.propertyStreetName;\r\n        property.propertyType = variable.propertyType;\r\n        property.propertyArea = variable.propertyArea;\r\n        property.propertyPincode = variable.propertyPincode;\r\n        property.propertyState = variable.propertyState;\r\n        property.propertyVillage = variable.propertyVillage;\r\n        property.propertyDistrict = variable.propertyDistrict;\r\n        property.propertyTaluka = variable.propertyTaluka;\r\n\r\n        // owner details\r\n        property.ownerName = variable.ownerName;\r\n        property.aadharCardNumber = variable.aadharCardNumber;\r\n        property.panCardNumber = variable.panCardNumber;\r\n        property.addressProofA = variable.addressProofA;\r\n        property.addressProofB = variable.addressProofB;\r\n\r\n        // ownership details\r\n        property.surveyNumber = variable.surveyNumber;\r\n        property.subSurveyNumber = variable.subSurveyNumber;\r\n        property.createdOn = variable.createdOn;\r\n\r\n        // registering new mapping of land\r\n        registerdLands.push(propertyCount);\r\n\r\n        // setting transfered status to all the merged properties\r\n        for (uint256 i = 0; i < variable.transferedFrom.length; i++) {\r\n            Property storage tempProperty = properties[\r\n                variable.transferedFrom[i]\r\n            ];\r\n            // setting successor\r\n            tempProperty.transfered = true;\r\n            tempProperty.transferedTo = propertyCount;\r\n        }\r\n    }\r\n\r\n    struct splitPropertyInputs {\r\n        uint256 _propertyId;\r\n        string _createdOn;\r\n        string[] _ownerName;\r\n        uint256[] _propertyArea;\r\n        string[] _ownerAadhaarCardNumber;\r\n        string[] _ownerPanCardNumber;\r\n        string[] _ownerAddressProofA;\r\n        string[] _ownerAddressProofB;\r\n        uint256[] _surveyNumber;\r\n        uint256[] _subSurveyNumber;\r\n        // documents\r\n        string[] _documentsName;\r\n        string[] _documentsHash;\r\n        string[] _documentsLink;\r\n    }\r\n\r\n    // parameter example:- (1,\"234234\",[\"harsh\",\"krishna\"],[\"123\",\"123\"],[\"addr\",\"addr\"],[45,76],[\"456\",\"456\"],[\"789\",\"789\"])\r\n    function splitProperty(splitPropertyInputs memory inputParameters) public {\r\n        Property storage ancestor = properties[inputParameters._propertyId];\r\n        // setting transfered true\r\n        ancestor.transfered = true;\r\n\r\n        // looping through area array as it denotes the number of land split into\r\n        for (uint256 i = 0; i < inputParameters._propertyArea.length; i++) {\r\n            Property storage tempProperty = properties[++propertyCount];\r\n\r\n            // values inherited from previous land\r\n            // property details\r\n            tempProperty.propertyHouseNumber = ancestor.propertyHouseNumber;\r\n            tempProperty.propertyStreetName = ancestor.propertyStreetName;\r\n            tempProperty.propertyType = ancestor.propertyType;\r\n            tempProperty.propertyArea = ancestor.propertyArea;\r\n            tempProperty.propertyPincode = ancestor.propertyPincode;\r\n            tempProperty.propertyState = ancestor.propertyState;\r\n            tempProperty.propertyVillage = ancestor.propertyVillage;\r\n            tempProperty.propertyDistrict = ancestor.propertyDistrict;\r\n            tempProperty.propertyTaluka = ancestor.propertyTaluka;\r\n\r\n            // transfer details (if any)\r\n            tempProperty.transfered = ancestor.transfered;\r\n            tempProperty.transferedTo = ancestor.transferedTo;\r\n\r\n            // split logic\r\n            tempProperty.transferedFrom.push(inputParameters._propertyId);\r\n\r\n            // new values of property\r\n            tempProperty.propertyId = propertyCount;\r\n            tempProperty.propertyArea = inputParameters._propertyArea[i];\r\n            tempProperty.ownerName = inputParameters._ownerName[i];\r\n            tempProperty.aadharCardNumber = inputParameters\r\n                ._ownerAadhaarCardNumber[i];\r\n            tempProperty.panCardNumber = inputParameters._ownerPanCardNumber[i];\r\n            tempProperty.addressProofA = inputParameters._ownerAddressProofA[i];\r\n            tempProperty.addressProofB = inputParameters._ownerAddressProofB[i];\r\n            tempProperty.surveyNumber = inputParameters._surveyNumber[i];\r\n            tempProperty.subSurveyNumber = inputParameters._subSurveyNumber[i];\r\n            tempProperty.createdOn = inputParameters._createdOn;\r\n\r\n            for (\r\n                uint256 j = 0;\r\n                j < inputParameters._documentsName.length;\r\n                j++\r\n            ) {\r\n                document memory newDocument = document(\r\n                    inputParameters._documentsName[j],\r\n                    inputParameters._documentsLink[j],\r\n                    inputParameters._documentsHash[j],\r\n                    true\r\n                );\r\n                tempProperty.documentNames.push(\r\n                    inputParameters._documentsName[j]\r\n                );\r\n                tempProperty.documents[\r\n                    inputParameters._documentsName[j]\r\n                ] = newDocument;\r\n            }\r\n\r\n            // registering new mapping of land\r\n            registerdLands.push(propertyCount);\r\n\r\n            // setting splitted land values\r\n            ancestor.propertySplitLandId.push(propertyCount);\r\n        }\r\n    }\r\n\r\n    function getProperty(\r\n        uint256 _propertyId\r\n    ) public view returns (outputvariables memory) {\r\n        Property storage tempProperty = properties[_propertyId];\r\n\r\n        // filling up documents\r\n        document[] memory documents;\r\n        // string[] memory docLink;\r\n        // string[] memory docHashString;\r\n        // bool[] memory docVerified;\r\n        // for (\r\n        //     uint256 i = 0;\r\n        //     i < tempProperty.documentNames.length || i < 7;\r\n        //     i++\r\n        // ) {\r\n        // string memory documentName = tempProperty.documentNames[i];\r\n        // docName.push(tempProperty.documents[documentName].name);\r\n        // docLink.push(tempProperty.documents[documentName].link);\r\n        // docHashString.push(tempProperty.documents[documentName].hashString);\r\n        // docVerified.push(tempProperty.documents[documentName].verified);\r\n        documents[0] = tempProperty.documents[tempProperty.documentNames[0]];\r\n        documents[1] = tempProperty.documents[tempProperty.documentNames[1]];\r\n        documents[2] = tempProperty.documents[tempProperty.documentNames[2]];\r\n        documents[3] = tempProperty.documents[tempProperty.documentNames[3]];\r\n        documents[4] = tempProperty.documents[tempProperty.documentNames[4]];\r\n        documents[5] = tempProperty.documents[tempProperty.documentNames[5]];\r\n        documents[6] = tempProperty.documents[tempProperty.documentNames[6]];\r\n        // docName = tempProperty.documentNames[0];\r\n        // documents.push(tempProperty.documents[docName]);\r\n        // docName = tempProperty.documentNames[0];\r\n        // documents.push(tempProperty.documents[docName]);\r\n        // docName = tempProperty.documentNames[0];\r\n        // documents.push(tempProperty.documents[docName]);\r\n        // docName = tempProperty.documentNames[0];\r\n        // documents.push(tempProperty.documents[docName]);\r\n        // docName = tempProperty.documentNames[0];\r\n        // documents.push(tempProperty.documents[docName]);\r\n        // docName = tempProperty.documentNames[0];\r\n        // documents.push(tempProperty.documents[docName]);\r\n\r\n        // }\r\n\r\n        outputvariables memory returnValue = outputvariables(\r\n            tempProperty.propertyHouseNumber,\r\n            tempProperty.propertyStreetName,\r\n            tempProperty.propertyType,\r\n            tempProperty.propertyArea,\r\n            tempProperty.propertyPincode,\r\n            tempProperty.propertyState,\r\n            tempProperty.propertyVillage,\r\n            tempProperty.propertyDistrict,\r\n            tempProperty.propertyTaluka,\r\n            // owner details\r\n            tempProperty.ownerName,\r\n            tempProperty.aadharCardNumber,\r\n            tempProperty.panCardNumber,\r\n            tempProperty.addressProofA,\r\n            tempProperty.addressProofB,\r\n            // transfer details (if any)\r\n            tempProperty.transfered,\r\n            tempProperty.transferedTo,\r\n            tempProperty.transferedFrom,\r\n            tempProperty.propertySplitLandId,\r\n            // ownership details\r\n            tempProperty.surveyNumber,\r\n            tempProperty.subSurveyNumber,\r\n            tempProperty.createdOn,\r\n            // documents\r\n            documents\r\n        );\r\n        return (returnValue);\r\n    }\r\n}\r\n",
  "sourcePath": "C:\\Users\\USER\\Desktop\\Land Registration\\contracts\\LandRegistery.sol",
  "compiler": {
    "name": "solc",
    "version": "0.8.17+commit.8df45f5f.Emscripten.clang"
  },
  "schemaVersion": "3.4.11",
  "updatedAt": "2023-04-11T12:41:37.930Z",
  "devdoc": {
    "kind": "dev",
    "methods": {},
    "version": 1
  },
  "userdoc": {
    "kind": "user",
    "methods": {},
    "version": 1
  }
}